{
  "address": "0x1f8C9254C237e0562b05bF55a7cEBD4618d0009a",
  "abi": [
    {
      "anonymous": false,
      "inputs": [
        {
          "indexed": true,
          "internalType": "bytes32",
          "name": "fileId",
          "type": "bytes32"
        },
        {
          "indexed": true,
          "internalType": "address",
          "name": "grantee",
          "type": "address"
        }
      ],
      "name": "AccessGranted",
      "type": "event"
    },
    {
      "anonymous": false,
      "inputs": [
        {
          "indexed": true,
          "internalType": "bytes32",
          "name": "fileId",
          "type": "bytes32"
        },
        {
          "indexed": true,
          "internalType": "address",
          "name": "grantee",
          "type": "address"
        }
      ],
      "name": "AccessRevoked",
      "type": "event"
    },
    {
      "anonymous": false,
      "inputs": [
        {
          "indexed": true,
          "internalType": "bytes32",
          "name": "fileId",
          "type": "bytes32"
        },
        {
          "indexed": true,
          "internalType": "address",
          "name": "owner",
          "type": "address"
        },
        {
          "indexed": false,
          "internalType": "string",
          "name": "cid",
          "type": "string"
        },
        {
          "indexed": false,
          "internalType": "string",
          "name": "metadata",
          "type": "string"
        }
      ],
      "name": "FileCreated",
      "type": "event"
    },
    {
      "anonymous": false,
      "inputs": [
        {
          "indexed": true,
          "internalType": "address",
          "name": "account",
          "type": "address"
        },
        {
          "indexed": false,
          "internalType": "string",
          "name": "name",
          "type": "string"
        }
      ],
      "name": "InstitutionRegistered",
      "type": "event"
    },
    {
      "inputs": [
        {
          "internalType": "uint256",
          "name": "",
          "type": "uint256"
        }
      ],
      "name": "allFiles",
      "outputs": [
        {
          "internalType": "bytes32",
          "name": "",
          "type": "bytes32"
        }
      ],
      "stateMutability": "view",
      "type": "function"
    },
    {
      "inputs": [
        {
          "internalType": "bytes32",
          "name": "fileId",
          "type": "bytes32"
        },
        {
          "internalType": "string",
          "name": "cid",
          "type": "string"
        },
        {
          "internalType": "string",
          "name": "metadata",
          "type": "string"
        }
      ],
      "name": "createFile",
      "outputs": [],
      "stateMutability": "nonpayable",
      "type": "function"
    },
    {
      "inputs": [],
      "name": "getAllFiles",
      "outputs": [
        {
          "internalType": "bytes32[]",
          "name": "",
          "type": "bytes32[]"
        }
      ],
      "stateMutability": "view",
      "type": "function"
    },
    {
      "inputs": [
        {
          "internalType": "bytes32",
          "name": "fileId",
          "type": "bytes32"
        }
      ],
      "name": "getFileCid",
      "outputs": [
        {
          "internalType": "string",
          "name": "",
          "type": "string"
        }
      ],
      "stateMutability": "view",
      "type": "function"
    },
    {
      "inputs": [
        {
          "internalType": "bytes32",
          "name": "fileId",
          "type": "bytes32"
        }
      ],
      "name": "getFileMetadata",
      "outputs": [
        {
          "internalType": "string",
          "name": "",
          "type": "string"
        }
      ],
      "stateMutability": "view",
      "type": "function"
    },
    {
      "inputs": [
        {
          "internalType": "address",
          "name": "owner",
          "type": "address"
        }
      ],
      "name": "getFilesByOwner",
      "outputs": [
        {
          "internalType": "bytes32[]",
          "name": "",
          "type": "bytes32[]"
        }
      ],
      "stateMutability": "view",
      "type": "function"
    },
    {
      "inputs": [
        {
          "internalType": "address",
          "name": "account",
          "type": "address"
        }
      ],
      "name": "getInstitution",
      "outputs": [
        {
          "components": [
            {
              "internalType": "string",
              "name": "name",
              "type": "string"
            },
            {
              "internalType": "string",
              "name": "description",
              "type": "string"
            },
            {
              "internalType": "string",
              "name": "contactInfo",
              "type": "string"
            },
            {
              "internalType": "address",
              "name": "account",
              "type": "address"
            },
            {
              "internalType": "bool",
              "name": "exists",
              "type": "bool"
            }
          ],
          "internalType": "struct Arkiv.Institution",
          "name": "",
          "type": "tuple"
        }
      ],
      "stateMutability": "view",
      "type": "function"
    },
    {
      "inputs": [
        {
          "internalType": "bytes32",
          "name": "fileId",
          "type": "bytes32"
        },
        {
          "internalType": "address",
          "name": "grantee",
          "type": "address"
        }
      ],
      "name": "grantAccess",
      "outputs": [],
      "stateMutability": "nonpayable",
      "type": "function"
    },
    {
      "inputs": [
        {
          "internalType": "bytes32",
          "name": "fileId",
          "type": "bytes32"
        },
        {
          "internalType": "address",
          "name": "account",
          "type": "address"
        }
      ],
      "name": "hasAccess",
      "outputs": [
        {
          "internalType": "bool",
          "name": "",
          "type": "bool"
        }
      ],
      "stateMutability": "view",
      "type": "function"
    },
    {
      "inputs": [
        {
          "internalType": "uint256",
          "name": "",
          "type": "uint256"
        }
      ],
      "name": "institutionList",
      "outputs": [
        {
          "internalType": "address",
          "name": "",
          "type": "address"
        }
      ],
      "stateMutability": "view",
      "type": "function"
    },
    {
      "inputs": [
        {
          "internalType": "address",
          "name": "",
          "type": "address"
        }
      ],
      "name": "institutions",
      "outputs": [
        {
          "internalType": "string",
          "name": "name",
          "type": "string"
        },
        {
          "internalType": "string",
          "name": "description",
          "type": "string"
        },
        {
          "internalType": "string",
          "name": "contactInfo",
          "type": "string"
        },
        {
          "internalType": "address",
          "name": "account",
          "type": "address"
        },
        {
          "internalType": "bool",
          "name": "exists",
          "type": "bool"
        }
      ],
      "stateMutability": "view",
      "type": "function"
    },
    {
      "inputs": [],
      "name": "listInstitutions",
      "outputs": [
        {
          "components": [
            {
              "internalType": "string",
              "name": "name",
              "type": "string"
            },
            {
              "internalType": "string",
              "name": "description",
              "type": "string"
            },
            {
              "internalType": "string",
              "name": "contactInfo",
              "type": "string"
            },
            {
              "internalType": "address",
              "name": "account",
              "type": "address"
            },
            {
              "internalType": "bool",
              "name": "exists",
              "type": "bool"
            }
          ],
          "internalType": "struct Arkiv.Institution[]",
          "name": "",
          "type": "tuple[]"
        }
      ],
      "stateMutability": "view",
      "type": "function"
    },
    {
      "inputs": [
        {
          "internalType": "bytes32",
          "name": "fileId",
          "type": "bytes32"
        }
      ],
      "name": "listRecipients",
      "outputs": [
        {
          "internalType": "address[]",
          "name": "",
          "type": "address[]"
        }
      ],
      "stateMutability": "view",
      "type": "function"
    },
    {
      "inputs": [
        {
          "internalType": "bytes32",
          "name": "fileId",
          "type": "bytes32"
        }
      ],
      "name": "listRevokedRecipients",
      "outputs": [
        {
          "internalType": "address[]",
          "name": "",
          "type": "address[]"
        }
      ],
      "stateMutability": "view",
      "type": "function"
    },
    {
      "inputs": [
        {
          "internalType": "string",
          "name": "name",
          "type": "string"
        },
        {
          "internalType": "string",
          "name": "description",
          "type": "string"
        },
        {
          "internalType": "string",
          "name": "contactInfo",
          "type": "string"
        }
      ],
      "name": "registerInstitution",
      "outputs": [],
      "stateMutability": "nonpayable",
      "type": "function"
    },
    {
      "inputs": [
        {
          "internalType": "bytes32",
          "name": "fileId",
          "type": "bytes32"
        },
        {
          "internalType": "address",
          "name": "grantee",
          "type": "address"
        }
      ],
      "name": "revokeAccess",
      "outputs": [],
      "stateMutability": "nonpayable",
      "type": "function"
    }
  ],
  "transactionHash": "0x1414d0fdc749ef5239870ca802ce9c427cfc7c0aec8d14acab732456e0e0c99c",
  "args": [],
  "numDeployments": 7,
  "solcInputHash": "92e4472b1b1ad288b73fe1b93c8f43e2",
  "bytecode": "0x608060405234801561000f575f80fd5b5061018a6100ae604080516080810182525f808252602082018190529181018290526060810191909152506040805160808101825273687820221192c5b662b25367f70076a37bc79b6c815273848b0066793bcc60346da1f49049357399b8d5956020820152731364cbbf2cdf5032c47d8226a6f6fbd2afcdacac9181019190915273bc91f3dad1a5f19f8390c400196e58073b6a0bc4606082015290565b80517fed8d60e34876f751cc8b014c560745351147d9de11b9347c854e881b128ea60080546001600160a01b03199081166001600160a01b039384161790915560208301517fed8d60e34876f751cc8b014c560745351147d9de11b9347c854e881b128ea6018054831691841691909117905560408301517fed8d60e34876f751cc8b014c560745351147d9de11b9347c854e881b128ea6028054831691841691909117905560608301517fed8d60e34876f751cc8b014c560745351147d9de11b9347c854e881b128ea6038054909216921691909117905550565b7f5ea69329017273582817d320489fbd94f775580e90c092699ca6f3d12fdf7d0080546001600160a01b03191673a02cda4ca3a71d7c46997716f4283aa851c28812179055611d52806101dc5f395ff3fe608060405234801561000f575f80fd5b50600436106100fb575f3560e01c8063a7b1f7c011610093578063d707af2811610063578063d707af2814610244578063ebc26ac814610259578063fc08a7d714610284578063ff24b5d5146102a4575f80fd5b8063a7b1f7c0146101d9578063abf7d796146101fa578063b2d9767f1461020d578063b6ac080414610231575f80fd5b806365f35371116100ce57806365f3537114610170578063711992361461018357806383177db3146101a35780638d53b208146101c6575f80fd5b80631eb4eb63146100ff578063358d4f071461012857806340554c3a146101485780634eb082621461015d575b5f80fd5b61011261010d3660046116b7565b6102ac565b60405161011f9190611711565b60405180910390f35b61013b6101363660046116b7565b6103a4565b60405161011f919061172a565b61015b610156366004611785565b61054c565b005b61015b61016b3660046117f4565b6106aa565b61011261017e3660046116b7565b610803565b610196610191366004611868565b610873565b60405161011f91906118f4565b6101b66101b1366004611785565b610b1e565b604051901515815260200161011f565b61015b6101d4366004611785565b610b9d565b6101ec6101e73660046116b7565b610d0a565b60405190815260200161011f565b61015b610208366004611906565b610d29565b61022061021b366004611868565b610f81565b60405161011f959493929190611999565b61013b61023f3660046116b7565b611150565b61024c6112ee565b60405161011f91906119f4565b61026c6102673660046116b7565b6115d1565b6040516001600160a01b03909116815260200161011f565b610297610292366004611868565b6115f9565b60405161011f9190611a56565b610297611661565b5f8181526020819052604090206005015460609060ff166103065760405162461bcd60e51b815260206004820152600f60248201526e119a5b194e881b9bdd08199bdd5b99608a1b60448201526064015b60405180910390fd5b5f828152602081905260409020600101805461032190611a8d565b80601f016020809104026020016040519081016040528092919081815260200182805461034d90611a8d565b80156103985780601f1061036f57610100808354040283529160200191610398565b820191905f5260205f20905b81548152906001019060200180831161037b57829003601f168201915b50505050509050919050565b5f81815260208190526040902060058101546060919060ff166103fb5760405162461bcd60e51b815260206004820152600f60248201526e119a5b194e881b9bdd08199bdd5b99608a1b60448201526064016102fd565b60038101545f805b8281101561046657836004015f85600301838154811061042557610425611abf565b5f9182526020808320909101546001600160a01b0316835282019290925260400190205460ff1661045e578161045a81611ad3565b9250505b600101610403565b505f8167ffffffffffffffff81111561048157610481611af7565b6040519080825280602002602001820160405280156104aa578160200160208202803683370190505b5090505f805b84811015610540575f8660030182815481106104ce576104ce611abf565b5f9182526020808320909101546001600160a01b031680835260048a0190915260409091205490915060ff16610537578084848151811061051157610511611abf565b6001600160a01b03909216602092830291909101909101528261053381611ad3565b9350505b506001016104b0565b50909695505050505050565b5f82815260208190526040902060050154829060ff166105a05760405162461bcd60e51b815260206004820152600f60248201526e119a5b194e881b9bdd08199bdd5b99608a1b60448201526064016102fd565b5f818152602081905260409020546001600160a01b031633146105f75760405162461bcd60e51b815260206004820152600f60248201526e27b7363c903334b6329037bbb732b960891b60448201526064016102fd565b5f838152602081815260408083206001600160a01b0386168452600481019092529091205460ff166106a4576001600160a01b0383165f8181526004830160209081526040808320805460ff1916600190811790915560038601805491820181558452918320909101805473ffffffffffffffffffffffffffffffffffffffff1916841790555186917ff20afd7b032307b01752ee91e3f6a4b83a5b4ab631f9ab279322fd45634382c091a35b50505050565b5f8581526020819052604090206005015460ff161561070b5760405162461bcd60e51b815260206004820152601460248201527f46696c653a20616c72656164792065786973747300000000000000000000000060448201526064016102fd565b5f858152602081905260409020805473ffffffffffffffffffffffffffffffffffffffff19163317815560018101610744858783611b57565b5060028101610754838583611b57565b5060058101805460ff19166001908117909155335f81815260208381526040808320805480870182559084529183209091018a90556002805494850181559091527f405787fa12a823e0f2b7631cc41b3ba8828b3321ca811111fa75cd3aa3bb5ace909201889055905187907fb064b901cc9d3851ee091c0c4da9db1cc12e962d4945367f8decf35bf51e2683906107f3908990899089908990611c39565b60405180910390a3505050505050565b5f8181526020819052604090206005015460609060ff166108585760405162461bcd60e51b815260206004820152600f60248201526e119a5b194e881b9bdd08199bdd5b99608a1b60448201526064016102fd565b5f828152602081905260409020600201805461032190611a8d565b6108ae6040518060a001604052806060815260200160608152602001606081526020015f6001600160a01b031681526020015f151581525090565b6001600160a01b0382165f9081526003602081905260409091200154600160a01b900460ff166109205760405162461bcd60e51b815260206004820152601560248201527f496e737469747574696f6e206e6f7420666f756e64000000000000000000000060448201526064016102fd565b6001600160a01b0382165f9081526003602052604090819020815160a0810190925280548290829061095190611a8d565b80601f016020809104026020016040519081016040528092919081815260200182805461097d90611a8d565b80156109c85780601f1061099f576101008083540402835291602001916109c8565b820191905f5260205f20905b8154815290600101906020018083116109ab57829003601f168201915b505050505081526020016001820180546109e190611a8d565b80601f0160208091040260200160405190810160405280929190818152602001828054610a0d90611a8d565b8015610a585780601f10610a2f57610100808354040283529160200191610a58565b820191905f5260205f20905b815481529060010190602001808311610a3b57829003601f168201915b50505050508152602001600282018054610a7190611a8d565b80601f0160208091040260200160405190810160405280929190818152602001828054610a9d90611a8d565b8015610ae85780601f10610abf57610100808354040283529160200191610ae8565b820191905f5260205f20905b815481529060010190602001808311610acb57829003601f168201915b5050509183525050600391909101546001600160a01b0381166020830152600160a01b900460ff16151560409091015292915050565b5f8281526020819052604081206005015460ff16610b705760405162461bcd60e51b815260206004820152600f60248201526e119a5b194e881b9bdd08199bdd5b99608a1b60448201526064016102fd565b505f828152602081815260408083206001600160a01b038516845260040190915290205460ff1692915050565b5f82815260208190526040902060050154829060ff16610bf15760405162461bcd60e51b815260206004820152600f60248201526e119a5b194e881b9bdd08199bdd5b99608a1b60448201526064016102fd565b5f818152602081905260409020546001600160a01b03163314610c485760405162461bcd60e51b815260206004820152600f60248201526e27b7363c903334b6329037bbb732b960891b60448201526064016102fd565b5f838152602081815260408083206001600160a01b0386168452600481019092529091205460ff16610cbc5760405162461bcd60e51b815260206004820152600b60248201527f4e6f74206772616e74656400000000000000000000000000000000000000000060448201526064016102fd565b6001600160a01b0383165f818152600483016020526040808220805460ff191690555186917fe7906b77ea165c70ad8268ce5b59b778a198edf9c1ae4118378eefdc76fce5f491a350505050565b60028181548110610d19575f80fd5b5f91825260209091200154905081565b335f9081526003602081905260409091200154600160a01b900460ff1615610d935760405162461bcd60e51b815260206004820152601260248201527f416c72656164792072656769737465726564000000000000000000000000000060448201526064016102fd565b6040518060a0016040528087878080601f0160208091040260200160405190810160405280939291908181526020018383808284375f92019190915250505090825250604080516020601f8801819004810282018101909252868152918101919087908790819084018382808284375f92019190915250505090825250604080516020601f8601819004810282018101909252848152918101919085908590819084018382808284375f9201829052509385525050336020808501829052600160409586015290835260039052502081518190610e709082611c6a565b5060208201516001820190610e859082611c6a565b5060408201516002820190610e9a9082611c6a565b506060820151600390910180546080909301511515600160a01b027fffffffffffffffffffffff0000000000000000000000000000000000000000009093166001600160a01b0390921691909117919091179055600480546001810182555f919091527f8a35acfbc15ff81a39ae7d344fd709f28e8600b4aa8c65c6b64bfe7fe36bd19b01805473ffffffffffffffffffffffffffffffffffffffff1916339081179091556040517f73a52c071d4a02996481449bf1ad04d8f24559a7ec51210c4ec5e43d3baee88190610f719089908990611d2a565b60405180910390a2505050505050565b60036020525f9081526040902080548190610f9b90611a8d565b80601f0160208091040260200160405190810160405280929190818152602001828054610fc790611a8d565b80156110125780601f10610fe957610100808354040283529160200191611012565b820191905f5260205f20905b815481529060010190602001808311610ff557829003601f168201915b50505050509080600101805461102790611a8d565b80601f016020809104026020016040519081016040528092919081815260200182805461105390611a8d565b801561109e5780601f106110755761010080835404028352916020019161109e565b820191905f5260205f20905b81548152906001019060200180831161108157829003601f168201915b5050505050908060020180546110b390611a8d565b80601f01602080910402602001604051908101604052809291908181526020018280546110df90611a8d565b801561112a5780601f106111015761010080835404028352916020019161112a565b820191905f5260205f20905b81548152906001019060200180831161110d57829003601f168201915b505050600390930154919250506001600160a01b0381169060ff600160a01b9091041685565b5f81815260208190526040902060058101546060919060ff166111a75760405162461bcd60e51b815260206004820152600f60248201526e119a5b194e881b9bdd08199bdd5b99608a1b60448201526064016102fd565b60038101545f805b8281101561121357836004015f8560030183815481106111d1576111d1611abf565b5f9182526020808320909101546001600160a01b0316835282019290925260400190205460ff161561120b578161120781611ad3565b9250505b6001016111af565b505f8167ffffffffffffffff81111561122e5761122e611af7565b604051908082528060200260200182016040528015611257578160200160208202803683370190505b5090505f805b84811015610540575f86600301828154811061127b5761127b611abf565b5f9182526020808320909101546001600160a01b031680835260048a0190915260409091205490915060ff16156112e557808484815181106112bf576112bf611abf565b6001600160a01b0390921660209283029190910190910152826112e181611ad3565b9350505b5060010161125d565b6004546060905f9067ffffffffffffffff81111561130e5761130e611af7565b60405190808252806020026020018201604052801561137a57816020015b6113676040518060a001604052806060815260200160608152602001606081526020015f6001600160a01b031681526020015f151581525090565b81526020019060019003908161132c5790505b5090505f5b6004548110156115cb5760035f6004838154811061139f5761139f611abf565b5f9182526020808320909101546001600160a01b031683528201929092526040908101909120815160a081019092528054829082906113dd90611a8d565b80601f016020809104026020016040519081016040528092919081815260200182805461140990611a8d565b80156114545780601f1061142b57610100808354040283529160200191611454565b820191905f5260205f20905b81548152906001019060200180831161143757829003601f168201915b5050505050815260200160018201805461146d90611a8d565b80601f016020809104026020016040519081016040528092919081815260200182805461149990611a8d565b80156114e45780601f106114bb576101008083540402835291602001916114e4565b820191905f5260205f20905b8154815290600101906020018083116114c757829003601f168201915b505050505081526020016002820180546114fd90611a8d565b80601f016020809104026020016040519081016040528092919081815260200182805461152990611a8d565b80156115745780601f1061154b57610100808354040283529160200191611574565b820191905f5260205f20905b81548152906001019060200180831161155757829003601f168201915b5050509183525050600391909101546001600160a01b0381166020830152600160a01b900460ff16151560409091015282518390839081106115b8576115b8611abf565b602090810291909101015260010161137f565b50919050565b600481815481106115e0575f80fd5b5f918252602090912001546001600160a01b0316905081565b6001600160a01b0381165f9081526001602090815260409182902080548351818402810184019094528084526060939283018282801561039857602002820191905f5260205f20905b8154815260200190600101908083116116425750505050509050919050565b606060028054806020026020016040519081016040528092919081815260200182805480156116ad57602002820191905f5260205f20905b815481526020019060010190808311611699575b5050505050905090565b5f602082840312156116c7575f80fd5b5035919050565b5f81518084525f5b818110156116f2576020818501810151868301820152016116d6565b505f602082860101526020601f19601f83011685010191505092915050565b602081525f61172360208301846116ce565b9392505050565b602080825282518282018190525f9190848201906040850190845b818110156105405783516001600160a01b031683529284019291840191600101611745565b80356001600160a01b0381168114611780575f80fd5b919050565b5f8060408385031215611796575f80fd5b823591506117a66020840161176a565b90509250929050565b5f8083601f8401126117bf575f80fd5b50813567ffffffffffffffff8111156117d6575f80fd5b6020830191508360208285010111156117ed575f80fd5b9250929050565b5f805f805f60608688031215611808575f80fd5b85359450602086013567ffffffffffffffff80821115611826575f80fd5b61183289838a016117af565b9096509450604088013591508082111561184a575f80fd5b50611857888289016117af565b969995985093965092949392505050565b5f60208284031215611878575f80fd5b6117238261176a565b5f815160a0845261189560a08501826116ce565b9050602083015184820360208601526118ae82826116ce565b915050604083015184820360408601526118c882826116ce565b9150506001600160a01b0360608401511660608501526080830151151560808501528091505092915050565b602081525f6117236020830184611881565b5f805f805f806060878903121561191b575f80fd5b863567ffffffffffffffff80821115611932575f80fd5b61193e8a838b016117af565b90985096506020890135915080821115611956575f80fd5b6119628a838b016117af565b9096509450604089013591508082111561197a575f80fd5b5061198789828a016117af565b979a9699509497509295939492505050565b60a081525f6119ab60a08301886116ce565b82810360208401526119bd81886116ce565b905082810360408401526119d181876116ce565b6001600160a01b0395909516606084015250509015156080909101529392505050565b5f60208083016020845280855180835260408601915060408160051b8701019250602087015f5b82811015611a4957603f19888603018452611a37858351611881565b94509285019290850190600101611a1b565b5092979650505050505050565b602080825282518282018190525f9190848201906040850190845b8181101561054057835183529284019291840191600101611a71565b600181811c90821680611aa157607f821691505b6020821081036115cb57634e487b7160e01b5f52602260045260245ffd5b634e487b7160e01b5f52603260045260245ffd5b5f60018201611af057634e487b7160e01b5f52601160045260245ffd5b5060010190565b634e487b7160e01b5f52604160045260245ffd5b601f821115611b5257805f5260205f20601f840160051c81016020851015611b305750805b601f840160051c820191505b81811015611b4f575f8155600101611b3c565b50505b505050565b67ffffffffffffffff831115611b6f57611b6f611af7565b611b8383611b7d8354611a8d565b83611b0b565b5f601f841160018114611bb4575f8515611b9d5750838201355b5f19600387901b1c1916600186901b178355611b4f565b5f83815260208120601f198716915b82811015611be35786850135825560209485019460019092019101611bc3565b5086821015611bff575f1960f88860031b161c19848701351681555b505060018560011b0183555050505050565b81835281816020850137505f828201602090810191909152601f909101601f19169091010190565b604081525f611c4c604083018688611c11565b8281036020840152611c5f818587611c11565b979650505050505050565b815167ffffffffffffffff811115611c8457611c84611af7565b611c9881611c928454611a8d565b84611b0b565b602080601f831160018114611ccb575f8415611cb45750858301515b5f19600386901b1c1916600185901b178555611d22565b5f85815260208120601f198616915b82811015611cf957888601518255948401946001909101908401611cda565b5085821015611d1657878501515f19600388901b60f8161c191681555b505060018460011b0185555b505050505050565b602081525f611d3d602083018486611c11565b94935050505056fea164736f6c6343000818000a",
  "devdoc": {
    "kind": "dev",
    "methods": {},
    "title": "Arkiv",
    "version": 1
  },
  "userdoc": {
    "kind": "user",
    "methods": {},
    "notice": "Stores IPFS CID + metadata + AES-256 (encrypted) key split into four euint64 words per recipient.         Uses Zama FHE primitives optionally (kept), and also supports storing wrapped key blobs (bytes)         which are easier to produce client-side initially.",
    "version": 1
  },
  "storageLayout": {
    "storage": [
      {
        "astId": 39148,
        "contract": "contracts/Arkiv.sol:Arkiv",
        "label": "_files",
        "offset": 0,
        "slot": "0",
        "type": "t_mapping(t_bytes32,t_struct(FileMeta)39143_storage)"
      },
      {
        "astId": 39153,
        "contract": "contracts/Arkiv.sol:Arkiv",
        "label": "_ownerFiles",
        "offset": 0,
        "slot": "1",
        "type": "t_mapping(t_address,t_array(t_bytes32)dyn_storage)"
      },
      {
        "astId": 39156,
        "contract": "contracts/Arkiv.sol:Arkiv",
        "label": "allFiles",
        "offset": 0,
        "slot": "2",
        "type": "t_array(t_bytes32)dyn_storage"
      },
      {
        "astId": 39172,
        "contract": "contracts/Arkiv.sol:Arkiv",
        "label": "institutions",
        "offset": 0,
        "slot": "3",
        "type": "t_mapping(t_address,t_struct(Institution)39167_storage)"
      },
      {
        "astId": 39175,
        "contract": "contracts/Arkiv.sol:Arkiv",
        "label": "institutionList",
        "offset": 0,
        "slot": "4",
        "type": "t_array(t_address)dyn_storage"
      }
    ],
    "types": {
      "t_address": {
        "encoding": "inplace",
        "label": "address",
        "numberOfBytes": "20"
      },
      "t_array(t_address)dyn_storage": {
        "base": "t_address",
        "encoding": "dynamic_array",
        "label": "address[]",
        "numberOfBytes": "32"
      },
      "t_array(t_bytes32)dyn_storage": {
        "base": "t_bytes32",
        "encoding": "dynamic_array",
        "label": "bytes32[]",
        "numberOfBytes": "32"
      },
      "t_bool": {
        "encoding": "inplace",
        "label": "bool",
        "numberOfBytes": "1"
      },
      "t_bytes32": {
        "encoding": "inplace",
        "label": "bytes32",
        "numberOfBytes": "32"
      },
      "t_mapping(t_address,t_array(t_bytes32)dyn_storage)": {
        "encoding": "mapping",
        "key": "t_address",
        "label": "mapping(address => bytes32[])",
        "numberOfBytes": "32",
        "value": "t_array(t_bytes32)dyn_storage"
      },
      "t_mapping(t_address,t_bool)": {
        "encoding": "mapping",
        "key": "t_address",
        "label": "mapping(address => bool)",
        "numberOfBytes": "32",
        "value": "t_bool"
      },
      "t_mapping(t_address,t_struct(Institution)39167_storage)": {
        "encoding": "mapping",
        "key": "t_address",
        "label": "mapping(address => struct Arkiv.Institution)",
        "numberOfBytes": "32",
        "value": "t_struct(Institution)39167_storage"
      },
      "t_mapping(t_bytes32,t_struct(FileMeta)39143_storage)": {
        "encoding": "mapping",
        "key": "t_bytes32",
        "label": "mapping(bytes32 => struct Arkiv.FileMeta)",
        "numberOfBytes": "32",
        "value": "t_struct(FileMeta)39143_storage"
      },
      "t_string_storage": {
        "encoding": "bytes",
        "label": "string",
        "numberOfBytes": "32"
      },
      "t_struct(FileMeta)39143_storage": {
        "encoding": "inplace",
        "label": "struct Arkiv.FileMeta",
        "members": [
          {
            "astId": 39129,
            "contract": "contracts/Arkiv.sol:Arkiv",
            "label": "owner",
            "offset": 0,
            "slot": "0",
            "type": "t_address"
          },
          {
            "astId": 39131,
            "contract": "contracts/Arkiv.sol:Arkiv",
            "label": "cid",
            "offset": 0,
            "slot": "1",
            "type": "t_string_storage"
          },
          {
            "astId": 39133,
            "contract": "contracts/Arkiv.sol:Arkiv",
            "label": "metadata",
            "offset": 0,
            "slot": "2",
            "type": "t_string_storage"
          },
          {
            "astId": 39136,
            "contract": "contracts/Arkiv.sol:Arkiv",
            "label": "recipients",
            "offset": 0,
            "slot": "3",
            "type": "t_array(t_address)dyn_storage"
          },
          {
            "astId": 39140,
            "contract": "contracts/Arkiv.sol:Arkiv",
            "label": "canAccess",
            "offset": 0,
            "slot": "4",
            "type": "t_mapping(t_address,t_bool)"
          },
          {
            "astId": 39142,
            "contract": "contracts/Arkiv.sol:Arkiv",
            "label": "exists",
            "offset": 0,
            "slot": "5",
            "type": "t_bool"
          }
        ],
        "numberOfBytes": "192"
      },
      "t_struct(Institution)39167_storage": {
        "encoding": "inplace",
        "label": "struct Arkiv.Institution",
        "members": [
          {
            "astId": 39158,
            "contract": "contracts/Arkiv.sol:Arkiv",
            "label": "name",
            "offset": 0,
            "slot": "0",
            "type": "t_string_storage"
          },
          {
            "astId": 39160,
            "contract": "contracts/Arkiv.sol:Arkiv",
            "label": "description",
            "offset": 0,
            "slot": "1",
            "type": "t_string_storage"
          },
          {
            "astId": 39162,
            "contract": "contracts/Arkiv.sol:Arkiv",
            "label": "contactInfo",
            "offset": 0,
            "slot": "2",
            "type": "t_string_storage"
          },
          {
            "astId": 39164,
            "contract": "contracts/Arkiv.sol:Arkiv",
            "label": "account",
            "offset": 0,
            "slot": "3",
            "type": "t_address"
          },
          {
            "astId": 39166,
            "contract": "contracts/Arkiv.sol:Arkiv",
            "label": "exists",
            "offset": 20,
            "slot": "3",
            "type": "t_bool"
          }
        ],
        "numberOfBytes": "128"
      }
    }
  }
}