{
  "_format": "hh-sol-artifact-1",
  "contractName": "Arkiv",
  "sourceName": "contracts/Arkiv.sol",
  "abi": [
    {
      "inputs": [],
      "stateMutability": "nonpayable",
      "type": "constructor"
    },
    {
      "anonymous": false,
      "inputs": [
        {
          "indexed": true,
          "internalType": "bytes32",
          "name": "fileId",
          "type": "bytes32"
        },
        {
          "indexed": true,
          "internalType": "address",
          "name": "grantee",
          "type": "address"
        }
      ],
      "name": "AccessGranted",
      "type": "event"
    },
    {
      "anonymous": false,
      "inputs": [
        {
          "indexed": true,
          "internalType": "bytes32",
          "name": "fileId",
          "type": "bytes32"
        },
        {
          "indexed": true,
          "internalType": "address",
          "name": "grantee",
          "type": "address"
        }
      ],
      "name": "AccessRevoked",
      "type": "event"
    },
    {
      "anonymous": false,
      "inputs": [
        {
          "indexed": true,
          "internalType": "bytes32",
          "name": "fileId",
          "type": "bytes32"
        },
        {
          "indexed": true,
          "internalType": "address",
          "name": "owner",
          "type": "address"
        },
        {
          "indexed": false,
          "internalType": "string",
          "name": "cid",
          "type": "string"
        },
        {
          "indexed": false,
          "internalType": "string",
          "name": "metadata",
          "type": "string"
        }
      ],
      "name": "FileCreated",
      "type": "event"
    },
    {
      "anonymous": false,
      "inputs": [
        {
          "indexed": true,
          "internalType": "bytes32",
          "name": "fileId",
          "type": "bytes32"
        },
        {
          "indexed": true,
          "internalType": "address",
          "name": "grantee",
          "type": "address"
        },
        {
          "indexed": false,
          "internalType": "uint256",
          "name": "wordsStored",
          "type": "uint256"
        }
      ],
      "name": "KeyWordsStored",
      "type": "event"
    },
    {
      "inputs": [
        {
          "internalType": "bytes32",
          "name": "fileId",
          "type": "bytes32"
        },
        {
          "internalType": "string",
          "name": "cid",
          "type": "string"
        },
        {
          "internalType": "string",
          "name": "metadata",
          "type": "string"
        }
      ],
      "name": "createFile",
      "outputs": [],
      "stateMutability": "nonpayable",
      "type": "function"
    },
    {
      "inputs": [
        {
          "internalType": "bytes32",
          "name": "fileId",
          "type": "bytes32"
        }
      ],
      "name": "getFileCid",
      "outputs": [
        {
          "internalType": "string",
          "name": "",
          "type": "string"
        }
      ],
      "stateMutability": "view",
      "type": "function"
    },
    {
      "inputs": [
        {
          "internalType": "bytes32",
          "name": "fileId",
          "type": "bytes32"
        }
      ],
      "name": "getFileMetadata",
      "outputs": [
        {
          "internalType": "string",
          "name": "",
          "type": "string"
        }
      ],
      "stateMutability": "view",
      "type": "function"
    },
    {
      "inputs": [
        {
          "internalType": "bytes32",
          "name": "fileId",
          "type": "bytes32"
        },
        {
          "internalType": "uint256",
          "name": "wordIndex",
          "type": "uint256"
        }
      ],
      "name": "getKeyWord",
      "outputs": [
        {
          "internalType": "euint64",
          "name": "",
          "type": "bytes32"
        }
      ],
      "stateMutability": "view",
      "type": "function"
    },
    {
      "inputs": [
        {
          "internalType": "bytes32",
          "name": "fileId",
          "type": "bytes32"
        },
        {
          "internalType": "address",
          "name": "account",
          "type": "address"
        },
        {
          "internalType": "uint256",
          "name": "wordIndex",
          "type": "uint256"
        }
      ],
      "name": "getKeyWordFor",
      "outputs": [
        {
          "internalType": "euint64",
          "name": "",
          "type": "bytes32"
        }
      ],
      "stateMutability": "view",
      "type": "function"
    },
    {
      "inputs": [
        {
          "internalType": "bytes32",
          "name": "fileId",
          "type": "bytes32"
        },
        {
          "internalType": "address",
          "name": "grantee",
          "type": "address"
        }
      ],
      "name": "grantAccess",
      "outputs": [],
      "stateMutability": "nonpayable",
      "type": "function"
    },
    {
      "inputs": [
        {
          "internalType": "bytes32",
          "name": "fileId",
          "type": "bytes32"
        },
        {
          "internalType": "address",
          "name": "account",
          "type": "address"
        }
      ],
      "name": "hasAccess",
      "outputs": [
        {
          "internalType": "bool",
          "name": "",
          "type": "bool"
        }
      ],
      "stateMutability": "view",
      "type": "function"
    },
    {
      "inputs": [
        {
          "internalType": "bytes32",
          "name": "fileId",
          "type": "bytes32"
        },
        {
          "internalType": "address",
          "name": "account",
          "type": "address"
        }
      ],
      "name": "keyWordCount",
      "outputs": [
        {
          "internalType": "uint256",
          "name": "",
          "type": "uint256"
        }
      ],
      "stateMutability": "view",
      "type": "function"
    },
    {
      "inputs": [
        {
          "internalType": "bytes32",
          "name": "fileId",
          "type": "bytes32"
        }
      ],
      "name": "listRecipients",
      "outputs": [
        {
          "internalType": "address[]",
          "name": "",
          "type": "address[]"
        }
      ],
      "stateMutability": "view",
      "type": "function"
    },
    {
      "inputs": [
        {
          "internalType": "bytes32",
          "name": "fileId",
          "type": "bytes32"
        },
        {
          "internalType": "address",
          "name": "grantee",
          "type": "address"
        }
      ],
      "name": "revokeAccess",
      "outputs": [],
      "stateMutability": "nonpayable",
      "type": "function"
    },
    {
      "inputs": [
        {
          "internalType": "bytes32",
          "name": "fileId",
          "type": "bytes32"
        },
        {
          "internalType": "address",
          "name": "grantee",
          "type": "address"
        },
        {
          "internalType": "externalEuint64[]",
          "name": "encWords",
          "type": "bytes32[]"
        },
        {
          "internalType": "bytes[]",
          "name": "inputProofs",
          "type": "bytes[]"
        }
      ],
      "name": "storeKeyWordsBatch",
      "outputs": [],
      "stateMutability": "nonpayable",
      "type": "function"
    }
  ],
  "bytecode": "0x608060405234801561000f575f80fd5b5061018a6100ae604080516080810182525f80825260208201819052918101829052606081019190915250604080516080810182527350157cffd6bbfa2dece204a89ec419c23ef5755d815273cd3ab3bd6bcc0c0bf3e27912a92043e817b1cf696020820152731364cbbf2cdf5032c47d8226a6f6fbd2afcdacac9181019190915273901f8942346f7ab3a01f6d7613119bca447bb030606082015290565b80517fed8d60e34876f751cc8b014c560745351147d9de11b9347c854e881b128ea60080546001600160a01b03199081166001600160a01b039384161790915560208301517fed8d60e34876f751cc8b014c560745351147d9de11b9347c854e881b128ea6018054831691841691909117905560408301517fed8d60e34876f751cc8b014c560745351147d9de11b9347c854e881b128ea6028054831691841691909117905560608301517fed8d60e34876f751cc8b014c560745351147d9de11b9347c854e881b128ea6038054909216921691909117905550565b7f5ea69329017273582817d320489fbd94f775580e90c092699ca6f3d12fdf7d0080546001600160a01b03191673a02cda4ca3a71d7c46997716f4283aa851c288121790556116ab806101dc5f395ff3fe608060405234801561000f575f80fd5b50600436106100c4575f3560e01c80636d06307a1161007d578063b6ac080411610058578063b6ac080414610196578063c56cae03146101b6578063d7aac3ae146101c9575f80fd5b80636d06307a1461014d57806383177db3146101605780638d53b20814610183575f80fd5b80634401d6c5116100ad5780634401d6c5146101065780634eb082621461012757806365f353711461013a575f80fd5b80631eb4eb63146100c857806340554c3a146100f1575b5f80fd5b6100db6100d6366004611148565b6101dc565b6040516100e891906111a2565b60405180910390f35b6101046100ff3660046111cf565b6102d4565b005b6101196101143660046111cf565b610432565b6040519081526020016100e8565b61010461013536600461123e565b6104ae565b6100db610148366004611148565b6105b2565b61011961015b3660046112b2565b610622565b61017361016e3660046111cf565b610753565b60405190151581526020016100e8565b6101046101913660046111cf565b6107d2565b6101a96101a4366004611148565b6109bc565b6040516100e891906112d2565b6101046101c436600461135f565b610a78565b6101196101d73660046113e3565b610d21565b5f8181526020819052604090206007015460609060ff166102365760405162461bcd60e51b815260206004820152600f60248201526e119a5b194e881b9bdd08199bdd5b99608a1b60448201526064015b60405180910390fd5b5f828152602081905260409020600101805461025190611415565b80601f016020809104026020016040519081016040528092919081815260200182805461027d90611415565b80156102c85780601f1061029f576101008083540402835291602001916102c8565b820191905f5260205f20905b8154815290600101906020018083116102ab57829003601f168201915b50505050509050919050565b5f82815260208190526040902060070154829060ff166103285760405162461bcd60e51b815260206004820152600f60248201526e119a5b194e881b9bdd08199bdd5b99608a1b604482015260640161022d565b5f818152602081905260409020546001600160a01b0316331461037f5760405162461bcd60e51b815260206004820152600f60248201526e27b7363c903334b6329037bbb732b960891b604482015260640161022d565b5f838152602081815260408083206001600160a01b0386168452600481019092529091205460ff1661042c576001600160a01b0383165f8181526004830160209081526040808320805460ff1916600190811790915560038601805491820181558452918320909101805473ffffffffffffffffffffffffffffffffffffffff1916841790555186917ff20afd7b032307b01752ee91e3f6a4b83a5b4ab631f9ab279322fd45634382c091a35b50505050565b5f8281526020819052604081206007015460ff166104845760405162461bcd60e51b815260206004820152600f60248201526e119a5b194e881b9bdd08199bdd5b99608a1b604482015260640161022d565b505f828152602081815260408083206001600160a01b038516845260050190915290205492915050565b5f8581526020819052604090206007015460ff161561050f5760405162461bcd60e51b815260206004820152601460248201527f46696c653a20616c726561647920657869737473000000000000000000000000604482015260640161022d565b5f858152602081905260409020805473ffffffffffffffffffffffffffffffffffffffff191633178155600181016105488587836114aa565b50600281016105588385836114aa565b5060078101805460ff19166001179055604051339087907fb064b901cc9d3851ee091c0c4da9db1cc12e962d4945367f8decf35bf51e2683906105a290899089908990899061158c565b60405180910390a3505050505050565b5f8181526020819052604090206007015460609060ff166106075760405162461bcd60e51b815260206004820152600f60248201526e119a5b194e881b9bdd08199bdd5b99608a1b604482015260640161022d565b5f828152602081905260409020600201805461025190611415565b5f8281526020819052604081206007015460ff166106745760405162461bcd60e51b815260206004820152600f60248201526e119a5b194e881b9bdd08199bdd5b99608a1b604482015260640161022d565b5f8381526020818152604080832033845260040190915290205460ff166106dd5760405162461bcd60e51b815260206004820152600e60248201527f4e6f7420617574686f72697a6564000000000000000000000000000000000000604482015260640161022d565b6004821061072d5760405162461bcd60e51b815260206004820152601660248201527f776f7264496e646578206f7574206f662072616e676500000000000000000000604482015260640161022d565b505f91825260208281526040808420338552600601825280842092845291905290205490565b5f8281526020819052604081206007015460ff166107a55760405162461bcd60e51b815260206004820152600f60248201526e119a5b194e881b9bdd08199bdd5b99608a1b604482015260640161022d565b505f828152602081815260408083206001600160a01b038516845260040190915290205460ff1692915050565b5f82815260208190526040902060070154829060ff166108265760405162461bcd60e51b815260206004820152600f60248201526e119a5b194e881b9bdd08199bdd5b99608a1b604482015260640161022d565b5f818152602081905260409020546001600160a01b0316331461087d5760405162461bcd60e51b815260206004820152600f60248201526e27b7363c903334b6329037bbb732b960891b604482015260640161022d565b5f838152602081815260408083206001600160a01b0386168452600481019092529091205460ff166108f15760405162461bcd60e51b815260206004820152600b60248201527f4e6f74206772616e746564000000000000000000000000000000000000000000604482015260640161022d565b6001600160a01b0383165f818152600483016020526040808220805460ff191690555186917fe7906b77ea165c70ad8268ce5b59b778a198edf9c1ae4118378eefdc76fce5f491a36001600160a01b0383165f90815260058201602052604090205480156109b5575f5b818110156109995761096c5f610ea0565b6001600160a01b0386165f908152600685016020908152604080832085845290915290205560010161095b565b506001600160a01b0384165f9081526005830160205260408120555b5050505050565b5f8181526020819052604090206007015460609060ff16610a115760405162461bcd60e51b815260206004820152600f60248201526e119a5b194e881b9bdd08199bdd5b99608a1b604482015260640161022d565b5f8281526020818152604091829020600301805483518184028101840190945280845290918301828280156102c857602002820191905f5260205f20905b81546001600160a01b03168152600190910190602001808311610a4f5750505050509050919050565b5f86815260208190526040902060070154869060ff16610acc5760405162461bcd60e51b815260206004820152600f60248201526e119a5b194e881b9bdd08199bdd5b99608a1b604482015260640161022d565b5f818152602081905260409020546001600160a01b03163314610b235760405162461bcd60e51b815260206004820152600f60248201526e27b7363c903334b6329037bbb732b960891b604482015260640161022d565b60048414610b735760405162461bcd60e51b815260206004820152601d60248201527f4d75737420737570706c79203420656e6372797074656420776f726473000000604482015260640161022d565b60048214610bc35760405162461bcd60e51b815260206004820152601460248201527f4d75737420737570706c7920342070726f6f6673000000000000000000000000604482015260640161022d565b5f878152602081815260408083206001600160a01b038a168452600481019092529091205460ff16610bf957610bf988886102d4565b5f5b6004811015610cbb575f610c7e888884818110610c1a57610c1a6115bd565b90506020020135878785818110610c3357610c336115bd565b9050602002810190610c4591906115d1565b8080601f0160208091040260200160405190810160405280939291908181526020018383808284375f92019190915250610ebc92505050565b6001600160a01b038a165f908152600685016020908152604080832086845290915290208190559050610cb1818a610ed0565b5050600101610bfb565b506001600160a01b0387165f8181526005830160205260409081902060049081905590518a917f225d2fba4ef63b164efa5e5ae0c1a8c0b5977ba471260c10a919f7e7367cdfab91610d0f91815260200190565b60405180910390a35050505050505050565b5f83815260208190526040812060070154849060ff16610d755760405162461bcd60e51b815260206004820152600f60248201526e119a5b194e881b9bdd08199bdd5b99608a1b604482015260640161022d565b5f818152602081905260409020546001600160a01b03163314610dcc5760405162461bcd60e51b815260206004820152600f60248201526e27b7363c903334b6329037bbb732b960891b604482015260640161022d565b5f8581526020819052604090206007015460ff16610e1e5760405162461bcd60e51b815260206004820152600f60248201526e119a5b194e881b9bdd08199bdd5b99608a1b604482015260640161022d565b60048310610e6e5760405162461bcd60e51b815260206004820152601660248201527f776f7264496e646578206f7574206f662072616e676500000000000000000000604482015260640161022d565b50505f928352602083815260408085206001600160a01b03949094168552600690930181528284209184525290205490565b5f610eb68267ffffffffffffffff166005610ee2565b92915050565b5f610ec983836005610f9f565b9392505050565b5f610edb83836110bf565b5090919050565b7fed8d60e34876f751cc8b014c560745351147d9de11b9347c854e881b128ea60154604051639cd07acb60e01b81525f917fed8d60e34876f751cc8b014c560745351147d9de11b9347c854e881b128ea600916001600160a01b0390911690639cd07acb90610f579087908790600401611634565b6020604051808303815f875af1158015610f73573d5f803e3d5ffd5b505050506040513d601f19601f82011682018060405250810190610f979190611648565b949350505050565b7fed8d60e34876f751cc8b014c560745351147d9de11b9347c854e881b128ea6015460405163196d0b9b60e01b81525f917fed8d60e34876f751cc8b014c560745351147d9de11b9347c854e881b128ea600916001600160a01b039091169063196d0b9b9061101890889033908990899060040161165f565b6020604051808303815f875af1158015611034573d5f803e3d5ffd5b505050506040513d601f19601f820116820180604052508101906110589190611648565b8154604051630f8e573b60e21b8152600481018390523360248201529193506001600160a01b031690633e395cec906044015f604051808303815f87803b1580156110a1575f80fd5b505af11580156110b3573d5f803e3d5ffd5b50505050509392505050565b5f7fed8d60e34876f751cc8b014c560745351147d9de11b9347c854e881b128ea6008054604051635ca4b5b160e11b8152600481018690526001600160a01b03858116602483015292935091169063b9496b62906044015f604051808303815f87803b15801561112d575f80fd5b505af115801561113f573d5f803e3d5ffd5b50505050505050565b5f60208284031215611158575f80fd5b5035919050565b5f81518084525f5b8181101561118357602081850181015186830182015201611167565b505f602082860101526020601f19601f83011685010191505092915050565b602081525f610ec9602083018461115f565b80356001600160a01b03811681146111ca575f80fd5b919050565b5f80604083850312156111e0575f80fd5b823591506111f0602084016111b4565b90509250929050565b5f8083601f840112611209575f80fd5b50813567ffffffffffffffff811115611220575f80fd5b602083019150836020828501011115611237575f80fd5b9250929050565b5f805f805f60608688031215611252575f80fd5b85359450602086013567ffffffffffffffff80821115611270575f80fd5b61127c89838a016111f9565b90965094506040880135915080821115611294575f80fd5b506112a1888289016111f9565b969995985093965092949392505050565b5f80604083850312156112c3575f80fd5b50508035926020909101359150565b602080825282518282018190525f9190848201906040850190845b818110156113125783516001600160a01b0316835292840192918401916001016112ed565b50909695505050505050565b5f8083601f84011261132e575f80fd5b50813567ffffffffffffffff811115611345575f80fd5b6020830191508360208260051b8501011115611237575f80fd5b5f805f805f8060808789031215611374575f80fd5b86359550611384602088016111b4565b9450604087013567ffffffffffffffff808211156113a0575f80fd5b6113ac8a838b0161131e565b909650945060608901359150808211156113c4575f80fd5b506113d189828a0161131e565b979a9699509497509295939492505050565b5f805f606084860312156113f5575f80fd5b83359250611405602085016111b4565b9150604084013590509250925092565b600181811c9082168061142957607f821691505b60208210810361144757634e487b7160e01b5f52602260045260245ffd5b50919050565b634e487b7160e01b5f52604160045260245ffd5b601f8211156114a557805f5260205f20601f840160051c810160208510156114865750805b601f840160051c820191505b818110156109b5575f8155600101611492565b505050565b67ffffffffffffffff8311156114c2576114c261144d565b6114d6836114d08354611415565b83611461565b5f601f841160018114611507575f85156114f05750838201355b5f19600387901b1c1916600186901b1783556109b5565b5f83815260208120601f198716915b828110156115365786850135825560209485019460019092019101611516565b5086821015611552575f1960f88860031b161c19848701351681555b505060018560011b0183555050505050565b81835281816020850137505f828201602090810191909152601f909101601f19169091010190565b604081525f61159f604083018688611564565b82810360208401526115b2818587611564565b979650505050505050565b634e487b7160e01b5f52603260045260245ffd5b5f808335601e198436030181126115e6575f80fd5b83018035915067ffffffffffffffff821115611600575f80fd5b602001915036819003821315611237575f80fd5b6054811061163057634e487b7160e01b5f52602160045260245ffd5b9052565b82815260408101610ec96020830184611614565b5f60208284031215611658575f80fd5b5051919050565b8481526001600160a01b0384166020820152608060408201525f611686608083018561115f565b90506116956060830184611614565b9594505050505056fea164736f6c6343000818000a",
  "linkReferences": {},
  "deployedLinkReferences": {}
}